{
  "contractName": "MyContract",
  "abi": [
    {
      "constant": true,
      "inputs": [],
      "name": "value",
      "outputs": [
        {
          "name": "",
          "type": "int256"
        }
      ],
      "payable": false,
      "stateMutability": "view",
      "type": "function"
    },
    {
      "constant": false,
      "inputs": [
        {
          "name": "a",
          "type": "int256"
        },
        {
          "name": "b",
          "type": "int256"
        }
      ],
      "name": "Adition",
      "outputs": [],
      "payable": false,
      "stateMutability": "nonpayable",
      "type": "function"
    },
    {
      "constant": false,
      "inputs": [
        {
          "name": "a",
          "type": "int256"
        },
        {
          "name": "b",
          "type": "int256"
        }
      ],
      "name": "Subtraction",
      "outputs": [],
      "payable": false,
      "stateMutability": "nonpayable",
      "type": "function"
    },
    {
      "constant": false,
      "inputs": [
        {
          "name": "a",
          "type": "int256"
        },
        {
          "name": "b",
          "type": "int256"
        }
      ],
      "name": "Multiplication",
      "outputs": [],
      "payable": false,
      "stateMutability": "nonpayable",
      "type": "function"
    },
    {
      "constant": false,
      "inputs": [
        {
          "name": "a",
          "type": "int256"
        },
        {
          "name": "b",
          "type": "int256"
        }
      ],
      "name": "Deviation",
      "outputs": [],
      "payable": false,
      "stateMutability": "nonpayable",
      "type": "function"
    }
  ],
  "bytecode": "0x608060405234801561001057600080fd5b5061021a806100206000396000f3fe608060405260043610610067576000357c0100000000000000000000000000000000000000000000000000000000900480633fa4f2451461006c57806347e9fe14146100975780639a83f8af146100dc578063cc78bfc914610121578063e83ffde314610166575b600080fd5b34801561007857600080fd5b506100816101ab565b6040518082815260200191505060405180910390f35b3480156100a357600080fd5b506100da600480360360408110156100ba57600080fd5b8101908080359060200190929190803590602001909291905050506101b1565b005b3480156100e857600080fd5b5061011f600480360360408110156100ff57600080fd5b8101908080359060200190929190803590602001909291905050506101be565b005b34801561012d57600080fd5b506101646004803603604081101561014457600080fd5b8101908080359060200190929190803590602001909291905050506101cb565b005b34801561017257600080fd5b506101a96004803603604081101561018957600080fd5b8101908080359060200190929190803590602001909291905050506101e1565b005b60005481565b8082016000819055505050565b8082026000819055505050565b80828115156101d657fe5b056000819055505050565b808203600081905550505056fea165627a7a723058203267333a0d126f439eadffebc7613b83c34fbfe136f9eeea883725743270e0640029",
  "source": "pragma solidity 0.5.1;\r\n\r\ncontract MyContract{\r\n    \r\n    int public value;\r\n\r\n    function Adition(int a, int b) public{\r\n        value = a+b;\r\n    }\r\n\r\n    function Subtraction(int a, int b) public{\r\n        value = a-b;\r\n    }\r\n\r\n    function Multiplication(int a, int b) public{\r\n        value = a*b;\r\n    }\r\n\r\n    function Deviation(int a, int b) public{\r\n        value = a/b;\r\n    }\r\n}",
  "sourcePath": "D:\\Projects\\Solidity-Notes\\TrufleTutorial\\contracts\\test.sol",
  "compiler": {
    "name": "solc",
    "version": "0.5.1+commit.c8a2cb62.Emscripten.clang"
  },
  "schemaVersion": "3.4.13",
  "updatedAt": "2023-05-07T08:42:51.614Z",
  "devdoc": {
    "methods": {}
  },
  "userdoc": {
    "methods": {}
  }
}